{
    "abi": [
        {
            "type": "constructor",
            "inputs": [],
            "stateMutability": "nonpayable"
        },
        {
            "type": "function",
            "name": "UPGRADE_INTERFACE_VERSION",
            "inputs": [],
            "outputs": [
                {
                    "name": "",
                    "type": "string",
                    "internalType": "string"
                }
            ],
            "stateMutability": "view"
        },
        {
            "type": "function",
            "name": "addOption",
            "inputs": [
                {
                    "name": "proposalId",
                    "type": "uint256",
                    "internalType": "uint256"
                },
                {
                    "name": "optionName",
                    "type": "string",
                    "internalType": "string"
                }
            ],
            "outputs": [],
            "stateMutability": "nonpayable"
        },
        {
            "type": "function",
            "name": "createProposal",
            "inputs": [
                {
                    "name": "title",
                    "type": "string",
                    "internalType": "string"
                }
            ],
            "outputs": [],
            "stateMutability": "nonpayable"
        },
        {
            "type": "function",
            "name": "getOptions",
            "inputs": [
                {
                    "name": "proposalId",
                    "type": "uint256",
                    "internalType": "uint256"
                }
            ],
            "outputs": [
                {
                    "name": "",
                    "type": "tuple[]",
                    "internalType": "struct SimpleVoting.Option[]",
                    "components": [
                        {
                            "name": "id",
                            "type": "uint256",
                            "internalType": "uint256"
                        },
                        {
                            "name": "name",
                            "type": "string",
                            "internalType": "string"
                        },
                        {
                            "name": "voteCount",
                            "type": "uint256",
                            "internalType": "uint256"
                        }
                    ]
                }
            ],
            "stateMutability": "view"
        },
        {
            "type": "function",
            "name": "getProposalTitle",
            "inputs": [
                {
                    "name": "proposalId",
                    "type": "uint256",
                    "internalType": "uint256"
                }
            ],
            "outputs": [
                {
                    "name": "title",
                    "type": "string",
                    "internalType": "string"
                }
            ],
            "stateMutability": "view"
        },
        {
            "type": "function",
            "name": "getVotes",
            "inputs": [
                {
                    "name": "proposalId",
                    "type": "uint256",
                    "internalType": "uint256"
                },
                {
                    "name": "optionId",
                    "type": "uint256",
                    "internalType": "uint256"
                }
            ],
            "outputs": [
                {
                    "name": "",
                    "type": "uint256",
                    "internalType": "uint256"
                }
            ],
            "stateMutability": "view"
        },
        {
            "type": "function",
            "name": "initialize",
            "inputs": [
                {
                    "name": "admin",
                    "type": "address",
                    "internalType": "address"
                }
            ],
            "outputs": [],
            "stateMutability": "nonpayable"
        },
        {
            "type": "function",
            "name": "num",
            "inputs": [],
            "outputs": [
                {
                    "name": "",
                    "type": "uint256",
                    "internalType": "uint256"
                }
            ],
            "stateMutability": "view"
        },
        {
            "type": "function",
            "name": "owner",
            "inputs": [],
            "outputs": [
                {
                    "name": "",
                    "type": "address",
                    "internalType": "address"
                }
            ],
            "stateMutability": "view"
        },
        {
            "type": "function",
            "name": "proposalCount",
            "inputs": [],
            "outputs": [
                {
                    "name": "",
                    "type": "uint256",
                    "internalType": "uint256"
                }
            ],
            "stateMutability": "view"
        },
        {
            "type": "function",
            "name": "proposals",
            "inputs": [
                {
                    "name": "",
                    "type": "uint256",
                    "internalType": "uint256"
                }
            ],
            "outputs": [
                {
                    "name": "id",
                    "type": "uint256",
                    "internalType": "uint256"
                },
                {
                    "name": "title",
                    "type": "string",
                    "internalType": "string"
                },
                {
                    "name": "optionCount",
                    "type": "uint256",
                    "internalType": "uint256"
                }
            ],
            "stateMutability": "view"
        },
        {
            "type": "function",
            "name": "proxiableUUID",
            "inputs": [],
            "outputs": [
                {
                    "name": "",
                    "type": "bytes32",
                    "internalType": "bytes32"
                }
            ],
            "stateMutability": "view"
        },
        {
            "type": "function",
            "name": "upgradeToAndCall",
            "inputs": [
                {
                    "name": "newImplementation",
                    "type": "address",
                    "internalType": "address"
                },
                {
                    "name": "data",
                    "type": "bytes",
                    "internalType": "bytes"
                }
            ],
            "outputs": [],
            "stateMutability": "payable"
        },
        {
            "type": "function",
            "name": "vote",
            "inputs": [
                {
                    "name": "proposalId",
                    "type": "uint256",
                    "internalType": "uint256"
                },
                {
                    "name": "optionId",
                    "type": "uint256",
                    "internalType": "uint256"
                }
            ],
            "outputs": [],
            "stateMutability": "nonpayable"
        },
        {
            "type": "function",
            "name": "voteUnlimit",
            "inputs": [
                {
                    "name": "proposalId",
                    "type": "uint256",
                    "internalType": "uint256"
                },
                {
                    "name": "optionId",
                    "type": "uint256",
                    "internalType": "uint256"
                }
            ],
            "outputs": [],
            "stateMutability": "nonpayable"
        },
        {
            "type": "event",
            "name": "Initialized",
            "inputs": [
                {
                    "name": "version",
                    "type": "uint64",
                    "indexed": false,
                    "internalType": "uint64"
                }
            ],
            "anonymous": false
        },
        {
            "type": "event",
            "name": "OptionAdded",
            "inputs": [
                {
                    "name": "proposalId",
                    "type": "uint256",
                    "indexed": false,
                    "internalType": "uint256"
                },
                {
                    "name": "optionId",
                    "type": "uint256",
                    "indexed": false,
                    "internalType": "uint256"
                },
                {
                    "name": "name",
                    "type": "string",
                    "indexed": false,
                    "internalType": "string"
                }
            ],
            "anonymous": false
        },
        {
            "type": "event",
            "name": "ProposalCreated",
            "inputs": [
                {
                    "name": "proposalId",
                    "type": "uint256",
                    "indexed": false,
                    "internalType": "uint256"
                },
                {
                    "name": "title",
                    "type": "string",
                    "indexed": false,
                    "internalType": "string"
                }
            ],
            "anonymous": false
        },
        {
            "type": "event",
            "name": "Upgraded",
            "inputs": [
                {
                    "name": "implementation",
                    "type": "address",
                    "indexed": true,
                    "internalType": "address"
                }
            ],
            "anonymous": false
        },
        {
            "type": "event",
            "name": "Voted",
            "inputs": [
                {
                    "name": "voter",
                    "type": "address",
                    "indexed": true,
                    "internalType": "address"
                },
                {
                    "name": "proposalId",
                    "type": "uint256",
                    "indexed": false,
                    "internalType": "uint256"
                },
                {
                    "name": "optionId",
                    "type": "uint256",
                    "indexed": false,
                    "internalType": "uint256"
                }
            ],
            "anonymous": false
        },
        {
            "type": "error",
            "name": "AddressEmptyCode",
            "inputs": [
                {
                    "name": "target",
                    "type": "address",
                    "internalType": "address"
                }
            ]
        },
        {
            "type": "error",
            "name": "ERC1967InvalidImplementation",
            "inputs": [
                {
                    "name": "implementation",
                    "type": "address",
                    "internalType": "address"
                }
            ]
        },
        {
            "type": "error",
            "name": "ERC1967NonPayable",
            "inputs": []
        },
        {
            "type": "error",
            "name": "FailedCall",
            "inputs": []
        },
        {
            "type": "error",
            "name": "InvalidInitialization",
            "inputs": []
        },
        {
            "type": "error",
            "name": "NotInitializing",
            "inputs": []
        },
        {
            "type": "error",
            "name": "UUPSUnauthorizedCallContext",
            "inputs": []
        },
        {
            "type": "error",
            "name": "UUPSUnsupportedProxiableUUID",
            "inputs": [
                {
                    "name": "slot",
                    "type": "bytes32",
                    "internalType": "bytes32"
                }
            ]
        }
    ],
    "bytecode": {
        "object": "0x60a06040523073ffffffffffffffffffffffffffffffffffffffff1660809073ffffffffffffffffffffffffffffffffffffffff16815250348015610042575f5ffd5b5061005161005660201b60201c565b6101d1565b5f61006561015460201b60201c565b9050805f0160089054906101000a900460ff16156100af576040517ff92ee8a900000000000000000000000000000000000000000000000000000000815260040160405180910390fd5b67ffffffffffffffff8016815f015f9054906101000a900467ffffffffffffffff1667ffffffffffffffff16146101515767ffffffffffffffff815f015f6101000a81548167ffffffffffffffff021916908367ffffffffffffffff1602179055507fc7f505b2f371ae2175ee4913f4499e1f2633a7b5936321eed1cdaeb6115181d267ffffffffffffffff60405161014891906101b8565b60405180910390a15b50565b5f5f61016461016d60201b60201c565b90508091505090565b5f7ff0c57e16840df040f15088dc2f81fe391c3923bec73e23a9662efc9c229c6a005f1b905090565b5f67ffffffffffffffff82169050919050565b6101b281610196565b82525050565b5f6020820190506101cb5f8301846101a9565b92915050565b60805161260d6101f75f395f81816110ba0152818161110f015261134f015261260d5ff3fe6080604052600436106100e7575f3560e01c80638da5cb5b11610089578063c4d66de811610058578063c4d66de8146102dd578063cbba67f214610305578063da35c66414610341578063ea57d5d41461036b576100e7565b80638da5cb5b1461022557806391f366331461024f578063ad3cb1cc1461028b578063b384abef146102b5576100e7565b80634e70b1dc116100c55780634e70b1dc146101795780634f1ef286146101a357806352d1902d146101bf5780638915b3fb146101e9576100e7565b8063013cf08b146100eb57806324612fbf1461012957806349c2a1a614610151575b5f5ffd5b3480156100f6575f5ffd5b50610111600480360381019061010c919061177a565b610393565b60405161012093929190611824565b60405180910390f35b348015610134575f5ffd5b5061014f600480360381019061014a9190611860565b61043f565b005b34801561015c575f5ffd5b50610177600480360381019061017291906119ca565b6105d0565b005b348015610184575f5ffd5b5061018d6106ac565b60405161019a9190611a11565b60405180910390f35b6101bd60048036038101906101b89190611b22565b6106b2565b005b3480156101ca575f5ffd5b506101d36106d1565b6040516101e09190611b94565b60405180910390f35b3480156101f4575f5ffd5b5061020f600480360381019061020a919061177a565b610702565b60405161021c9190611d0c565b60405180910390f35b348015610230575f5ffd5b506102396108b0565b6040516102469190611d3b565b60405180910390f35b34801561025a575f5ffd5b5061027560048036038101906102709190611860565b6108d7565b6040516102829190611a11565b60405180910390f35b348015610296575f5ffd5b5061029f6109b0565b6040516102ac9190611d54565b60405180910390f35b3480156102c0575f5ffd5b506102db60048036038101906102d69190611860565b6109e9565b005b3480156102e8575f5ffd5b5061030360048036038101906102fe9190611d74565b610c06565b005b348015610310575f5ffd5b5061032b6004803603810190610326919061177a565b610dbd565b6040516103389190611d54565b60405180910390f35b34801561034c575f5ffd5b50610355610eb8565b6040516103629190611a11565b60405180910390f35b348015610376575f5ffd5b50610391600480360381019061038c9190611dfc565b610ebe565b005b6003602052805f5260405f205f91509050805f0154908060010180546103b890611e86565b80601f01602080910402602001604051908101604052809291908181526020018280546103e490611e86565b801561042f5780601f106104065761010080835404028352916020019161042f565b820191905f5260205f20905b81548152906001019060200180831161041257829003601f168201915b5050505050908060020154905083565b5f60035f8481526020019081526020015f2090505f81600101805461046390611e86565b9050036104a5576040517f08c379a000000000000000000000000000000000000000000000000000000000815260040161049c90611f00565b60405180910390fd5b5f821180156104b8575080600201548211155b6104f7576040517f08c379a00000000000000000000000000000000000000000000000000000000081526004016104ee90611f68565b60405180910390fd5b6001816003015f8481526020019081526020015f206002015f82825461051d9190611fb3565b925050819055506001816004015f3373ffffffffffffffffffffffffffffffffffffffff1673ffffffffffffffffffffffffffffffffffffffff1681526020019081526020015f205f6101000a81548160ff0219169083151502179055503373ffffffffffffffffffffffffffffffffffffffff167fea66f58e474bc09f580000e81f31b334d171db387d0c6098ba47bd897741679b84846040516105c3929190611fe6565b60405180910390a2505050565b5f5f9054906101000a900473ffffffffffffffffffffffffffffffffffffffff1673ffffffffffffffffffffffffffffffffffffffff163373ffffffffffffffffffffffffffffffffffffffff161461065e576040517f08c379a000000000000000000000000000000000000000000000000000000000815260040161065590612057565b60405180910390fd5b6001805f82825461066f9190611fb3565b925050819055505f60035f60015481526020019081526020015f209050600154815f0181905550818160010190816106a79190612215565b505050565b60025481565b6106ba6110b8565b6106c38261119e565b6106cd828261122f565b5050565b5f6106da61134d565b7f360894a13ba1a3210667c828492db98dca3e2076cc3735a920a3ca505d382bbc5f1b905090565b60605f60035f8481526020019081526020015f2090505f816002015467ffffffffffffffff811115610737576107366118a6565b5b60405190808252806020026020018201604052801561077057816020015b61075d611717565b8152602001906001900390816107555790505b5090505f600190505b82600201548167ffffffffffffffff16116108a5575f836003015f8367ffffffffffffffff1681526020019081526020015f209050806040518060600160405290815f82015481526020016001820180546107d390611e86565b80601f01602080910402602001604051908101604052809291908181526020018280546107ff90611e86565b801561084a5780601f106108215761010080835404028352916020019161084a565b820191905f5260205f20905b81548152906001019060200180831161082d57829003601f168201915b505050505081526020016002820154815250508360018461086b91906122f7565b67ffffffffffffffff168151811061088657610885612332565b5b602002602001018190525050808061089d9061235f565b915050610779565b508092505050919050565b5f5f5f9054906101000a900473ffffffffffffffffffffffffffffffffffffffff16905090565b5f5f60035f8581526020019081526020015f2090505f8160010180546108fc90611e86565b90500361093e576040517f08c379a0000000000000000000000000000000000000000000000000000000008152600401610935906123d8565b60405180910390fd5b5f83118015610951575080600201548311155b610990576040517f08c379a000000000000000000000000000000000000000000000000000000000815260040161098790611f68565b60405180910390fd5b806003015f8481526020019081526020015f206002015491505092915050565b6040518060400160405280600581526020017f352e302e3000000000000000000000000000000000000000000000000000000081525081565b5f60035f8481526020019081526020015f2090505f816001018054610a0d90611e86565b905003610a4f576040517f08c379a0000000000000000000000000000000000000000000000000000000008152600401610a4690611f00565b60405180910390fd5b5f82118015610a62575080600201548211155b610aa1576040517f08c379a0000000000000000000000000000000000000000000000000000000008152600401610a9890611f68565b60405180910390fd5b806004015f3373ffffffffffffffffffffffffffffffffffffffff1673ffffffffffffffffffffffffffffffffffffffff1681526020019081526020015f205f9054906101000a900460ff1615610b2d576040517f08c379a0000000000000000000000000000000000000000000000000000000008152600401610b2490612440565b60405180910390fd5b6001816003015f8481526020019081526020015f206002015f828254610b539190611fb3565b925050819055506001816004015f3373ffffffffffffffffffffffffffffffffffffffff1673ffffffffffffffffffffffffffffffffffffffff1681526020019081526020015f205f6101000a81548160ff0219169083151502179055503373ffffffffffffffffffffffffffffffffffffffff167fea66f58e474bc09f580000e81f31b334d171db387d0c6098ba47bd897741679b8484604051610bf9929190611fe6565b60405180910390a2505050565b5f610c0f6113d4565b90505f815f0160089054906101000a900460ff161590505f825f015f9054906101000a900467ffffffffffffffff1690505f5f8267ffffffffffffffff16148015610c575750825b90505f60018367ffffffffffffffff16148015610c8a57505f3073ffffffffffffffffffffffffffffffffffffffff163b145b905081158015610c98575080155b15610ccf576040517ff92ee8a900000000000000000000000000000000000000000000000000000000815260040160405180910390fd5b6001855f015f6101000a81548167ffffffffffffffff021916908367ffffffffffffffff1602179055508315610d1c576001855f0160086101000a81548160ff0219169083151502179055505b855f5f6101000a81548173ffffffffffffffffffffffffffffffffffffffff021916908373ffffffffffffffffffffffffffffffffffffffff1602179055508315610db5575f855f0160086101000a81548160ff0219169083151502179055507fc7f505b2f371ae2175ee4913f4499e1f2633a7b5936321eed1cdaeb6115181d26001604051610dac9190612497565b60405180910390a15b505050505050565b60605f60035f8481526020019081526020015f2090505f816001018054610de390611e86565b905003610e25576040517f08c379a0000000000000000000000000000000000000000000000000000000008152600401610e1c906124fa565b60405180910390fd5b806001018054610e3490611e86565b80601f0160208091040260200160405190810160405280929190818152602001828054610e6090611e86565b8015610eab5780601f10610e8257610100808354040283529160200191610eab565b820191905f5260205f20905b815481529060010190602001808311610e8e57829003601f168201915b5050505050915050919050565b60015481565b5f5f9054906101000a900473ffffffffffffffffffffffffffffffffffffffff1673ffffffffffffffffffffffffffffffffffffffff163373ffffffffffffffffffffffffffffffffffffffff1614610f4c576040517f08c379a0000000000000000000000000000000000000000000000000000000008152600401610f4390612057565b60405180910390fd5b5f60035f8581526020019081526020015f2090505f816001018054610f7090611e86565b905003610fb2576040517f08c379a0000000000000000000000000000000000000000000000000000000008152600401610fa9906124fa565b60405180910390fd5b6001816002015f828254610fc69190611fb3565b9250508190555060405180606001604052808260020154815260200184848080601f0160208091040260200160405190810160405280939291908181526020018383808284375f81840152601f19601f8201169050808301925050505050505081526020015f815250816003015f836002015481526020019081526020015f205f820151815f015560208201518160010190816110639190612215565b50604082015181600201559050507f0946129913e1d347e0148279910cacb866da59759e7914832ee7e7b69ac1500184826002015485856040516110aa9493929190612544565b60405180910390a150505050565b7f000000000000000000000000000000000000000000000000000000000000000073ffffffffffffffffffffffffffffffffffffffff163073ffffffffffffffffffffffffffffffffffffffff16148061116557507f000000000000000000000000000000000000000000000000000000000000000073ffffffffffffffffffffffffffffffffffffffff1661114c6113e7565b73ffffffffffffffffffffffffffffffffffffffff1614155b1561119c576040517fe07c8dba00000000000000000000000000000000000000000000000000000000815260040160405180910390fd5b565b5f5f9054906101000a900473ffffffffffffffffffffffffffffffffffffffff1673ffffffffffffffffffffffffffffffffffffffff163373ffffffffffffffffffffffffffffffffffffffff161461122c576040517f08c379a000000000000000000000000000000000000000000000000000000000815260040161122390612057565b60405180910390fd5b50565b8173ffffffffffffffffffffffffffffffffffffffff166352d1902d6040518163ffffffff1660e01b8152600401602060405180830381865afa92505050801561129757506040513d601f19601f8201168201806040525081019061129491906125ac565b60015b6112d857816040517f4c9c8ce30000000000000000000000000000000000000000000000000000000081526004016112cf9190611d3b565b60405180910390fd5b7f360894a13ba1a3210667c828492db98dca3e2076cc3735a920a3ca505d382bbc5f1b811461133e57806040517faa1d49a40000000000000000000000000000000000000000000000000000000081526004016113359190611b94565b60405180910390fd5b611348838361143a565b505050565b7f000000000000000000000000000000000000000000000000000000000000000073ffffffffffffffffffffffffffffffffffffffff163073ffffffffffffffffffffffffffffffffffffffff16146113d2576040517fe07c8dba00000000000000000000000000000000000000000000000000000000815260040160405180910390fd5b565b5f5f6113de6114ac565b90508091505090565b5f6114137f360894a13ba1a3210667c828492db98dca3e2076cc3735a920a3ca505d382bbc5f1b6114d5565b5f015f9054906101000a900473ffffffffffffffffffffffffffffffffffffffff16905090565b611443826114de565b8173ffffffffffffffffffffffffffffffffffffffff167fbc7cd75a20ee27fd9adebab32041f755214dbc6bffa90cc0225b39da2e5c2d3b60405160405180910390a25f8151111561149f5761149982826115a7565b506114a8565b6114a7611698565b5b5050565b5f7ff0c57e16840df040f15088dc2f81fe391c3923bec73e23a9662efc9c229c6a005f1b905090565b5f819050919050565b5f8173ffffffffffffffffffffffffffffffffffffffff163b0361153957806040517f4c9c8ce30000000000000000000000000000000000000000000000000000000081526004016115309190611d3b565b60405180910390fd5b806115657f360894a13ba1a3210667c828492db98dca3e2076cc3735a920a3ca505d382bbc5f1b6114d5565b5f015f6101000a81548173ffffffffffffffffffffffffffffffffffffffff021916908373ffffffffffffffffffffffffffffffffffffffff16021790555050565b60605f6115b484846116d4565b90508080156115ea57505f6115c76116e8565b11806115e957505f8473ffffffffffffffffffffffffffffffffffffffff163b115b5b156115ff576115f76116ef565b915050611692565b801561164257836040517f9996b3150000000000000000000000000000000000000000000000000000000081526004016116399190611d3b565b60405180910390fd5b5f61164b6116e8565b111561165e5761165961170c565b611690565b6040517fd6bda27500000000000000000000000000000000000000000000000000000000815260040160405180910390fd5b505b92915050565b5f3411156116d2576040517fb398979f00000000000000000000000000000000000000000000000000000000815260040160405180910390fd5b565b5f5f5f835160208501865af4905092915050565b5f3d905090565b606060405190503d81523d5f602083013e3d602001810160405290565b6040513d5f823e3d81fd5b60405180606001604052805f8152602001606081526020015f81525090565b5f604051905090565b5f5ffd5b5f5ffd5b5f819050919050565b61175981611747565b8114611763575f5ffd5b50565b5f8135905061177481611750565b92915050565b5f6020828403121561178f5761178e61173f565b5b5f61179c84828501611766565b91505092915050565b6117ae81611747565b82525050565b5f81519050919050565b5f82825260208201905092915050565b8281835e5f83830152505050565b5f601f19601f8301169050919050565b5f6117f6826117b4565b61180081856117be565b93506118108185602086016117ce565b611819816117dc565b840191505092915050565b5f6060820190506118375f8301866117a5565b818103602083015261184981856117ec565b905061185860408301846117a5565b949350505050565b5f5f604083850312156118765761187561173f565b5b5f61188385828601611766565b925050602061189485828601611766565b9150509250929050565b5f5ffd5b5f5ffd5b7f4e487b71000000000000000000000000000000000000000000000000000000005f52604160045260245ffd5b6118dc826117dc565b810181811067ffffffffffffffff821117156118fb576118fa6118a6565b5b80604052505050565b5f61190d611736565b905061191982826118d3565b919050565b5f67ffffffffffffffff821115611938576119376118a6565b5b611941826117dc565b9050602081019050919050565b828183375f83830152505050565b5f61196e6119698461191e565b611904565b90508281526020810184848401111561198a576119896118a2565b5b61199584828561194e565b509392505050565b5f82601f8301126119b1576119b061189e565b5b81356119c184826020860161195c565b91505092915050565b5f602082840312156119df576119de61173f565b5b5f82013567ffffffffffffffff8111156119fc576119fb611743565b5b611a088482850161199d565b91505092915050565b5f602082019050611a245f8301846117a5565b92915050565b5f73ffffffffffffffffffffffffffffffffffffffff82169050919050565b5f611a5382611a2a565b9050919050565b611a6381611a49565b8114611a6d575f5ffd5b50565b5f81359050611a7e81611a5a565b92915050565b5f67ffffffffffffffff821115611a9e57611a9d6118a6565b5b611aa7826117dc565b9050602081019050919050565b5f611ac6611ac184611a84565b611904565b905082815260208101848484011115611ae257611ae16118a2565b5b611aed84828561194e565b509392505050565b5f82601f830112611b0957611b0861189e565b5b8135611b19848260208601611ab4565b91505092915050565b5f5f60408385031215611b3857611b3761173f565b5b5f611b4585828601611a70565b925050602083013567ffffffffffffffff811115611b6657611b65611743565b5b611b7285828601611af5565b9150509250929050565b5f819050919050565b611b8e81611b7c565b82525050565b5f602082019050611ba75f830184611b85565b92915050565b5f81519050919050565b5f82825260208201905092915050565b5f819050602082019050919050565b611bdf81611747565b82525050565b5f82825260208201905092915050565b5f611bff826117b4565b611c098185611be5565b9350611c198185602086016117ce565b611c22816117dc565b840191505092915050565b5f606083015f830151611c425f860182611bd6565b5060208301518482036020860152611c5a8282611bf5565b9150506040830151611c6f6040860182611bd6565b508091505092915050565b5f611c858383611c2d565b905092915050565b5f602082019050919050565b5f611ca382611bad565b611cad8185611bb7565b935083602082028501611cbf85611bc7565b805f5b85811015611cfa5784840389528151611cdb8582611c7a565b9450611ce683611c8d565b925060208a01995050600181019050611cc2565b50829750879550505050505092915050565b5f6020820190508181035f830152611d248184611c99565b905092915050565b611d3581611a49565b82525050565b5f602082019050611d4e5f830184611d2c565b92915050565b5f6020820190508181035f830152611d6c81846117ec565b905092915050565b5f60208284031215611d8957611d8861173f565b5b5f611d9684828501611a70565b91505092915050565b5f5ffd5b5f5ffd5b5f5f83601f840112611dbc57611dbb61189e565b5b8235905067ffffffffffffffff811115611dd957611dd8611d9f565b5b602083019150836001820283011115611df557611df4611da3565b5b9250929050565b5f5f5f60408486031215611e1357611e1261173f565b5b5f611e2086828701611766565b935050602084013567ffffffffffffffff811115611e4157611e40611743565b5b611e4d86828701611da7565b92509250509250925092565b7f4e487b71000000000000000000000000000000000000000000000000000000005f52602260045260245ffd5b5f6002820490506001821680611e9d57607f821691505b602082108103611eb057611eaf611e59565b5b50919050565b7f70726f706f73616c73206e6f74206578697374000000000000000000000000005f82015250565b5f611eea6013836117be565b9150611ef582611eb6565b602082019050919050565b5f6020820190508181035f830152611f1781611ede565b9050919050565b7f4f7074696f6e206e6f74206578697374000000000000000000000000000000005f82015250565b5f611f526010836117be565b9150611f5d82611f1e565b602082019050919050565b5f6020820190508181035f830152611f7f81611f46565b9050919050565b7f4e487b71000000000000000000000000000000000000000000000000000000005f52601160045260245ffd5b5f611fbd82611747565b9150611fc883611747565b9250828201905080821115611fe057611fdf611f86565b5b92915050565b5f604082019050611ff95f8301856117a5565b61200660208301846117a5565b9392505050565b7f4e6f74206f776e657200000000000000000000000000000000000000000000005f82015250565b5f6120416009836117be565b915061204c8261200d565b602082019050919050565b5f6020820190508181035f83015261206e81612035565b9050919050565b5f819050815f5260205f209050919050565b5f6020601f8301049050919050565b5f82821b905092915050565b5f600883026120d17fffffffffffffffffffffffffffffffffffffffffffffffffffffffffffffffff82612096565b6120db8683612096565b95508019841693508086168417925050509392505050565b5f819050919050565b5f61211661211161210c84611747565b6120f3565b611747565b9050919050565b5f819050919050565b61212f836120fc565b61214361213b8261211d565b8484546120a2565b825550505050565b5f5f905090565b61215a61214b565b612165818484612126565b505050565b5b818110156121885761217d5f82612152565b60018101905061216b565b5050565b601f8211156121cd5761219e81612075565b6121a784612087565b810160208510156121b6578190505b6121ca6121c285612087565b83018261216a565b50505b505050565b5f82821c905092915050565b5f6121ed5f19846008026121d2565b1980831691505092915050565b5f61220583836121de565b9150826002028217905092915050565b61221e826117b4565b67ffffffffffffffff811115612237576122366118a6565b5b6122418254611e86565b61224c82828561218c565b5f60209050601f83116001811461227d575f841561226b578287015190505b61227585826121fa565b8655506122dc565b601f19841661228b86612075565b5f5b828110156122b25784890151825560018201915060208501945060208101905061228d565b868310156122cf57848901516122cb601f8916826121de565b8355505b6001600288020188555050505b505050505050565b5f67ffffffffffffffff82169050919050565b5f612301826122e4565b915061230c836122e4565b9250828203905067ffffffffffffffff81111561232c5761232b611f86565b5b92915050565b7f4e487b71000000000000000000000000000000000000000000000000000000005f52603260045260245ffd5b5f612369826122e4565b915067ffffffffffffffff820361238357612382611f86565b5b600182019050919050565b7f496e76616c69642070726f706f73616c000000000000000000000000000000005f82015250565b5f6123c26010836117be565b91506123cd8261238e565b602082019050919050565b5f6020820190508181035f8301526123ef816123b6565b9050919050565b7f416c726561646c7920566f7465640000000000000000000000000000000000005f82015250565b5f61242a600e836117be565b9150612435826123f6565b602082019050919050565b5f6020820190508181035f8301526124578161241e565b9050919050565b5f819050919050565b5f61248161247c6124778461245e565b6120f3565b6122e4565b9050919050565b61249181612467565b82525050565b5f6020820190506124aa5f830184612488565b92915050565b7f50726f706f73616c206e6f7420657869737400000000000000000000000000005f82015250565b5f6124e46012836117be565b91506124ef826124b0565b602082019050919050565b5f6020820190508181035f830152612511816124d8565b9050919050565b5f61252383856117be565b935061253083858461194e565b612539836117dc565b840190509392505050565b5f6060820190506125575f8301876117a5565b61256460208301866117a5565b8181036040830152612577818486612518565b905095945050505050565b61258b81611b7c565b8114612595575f5ffd5b50565b5f815190506125a681612582565b92915050565b5f602082840312156125c1576125c061173f565b5b5f6125ce84828501612598565b9150509291505056fea26469706673582212209592a70dd5ebebccdb9e838c14376286e8cbd5f4d13822b8b4656a5e4f4d0c7064736f6c634300081e0033",
        "linkReferences": {}
    },
    "methodIdentifiers": {
        "UPGRADE_INTERFACE_VERSION()": "ad3cb1cc",
        "addOption(uint256,string)": "ea57d5d4",
        "createProposal(string)": "49c2a1a6",
        "getOptions(uint256)": "8915b3fb",
        "getProposalTitle(uint256)": "cbba67f2",
        "getVotes(uint256,uint256)": "91f36633",
        "initialize(address)": "c4d66de8",
        "num()": "4e70b1dc",
        "owner()": "8da5cb5b",
        "proposalCount()": "da35c664",
        "proposals(uint256)": "013cf08b",
        "proxiableUUID()": "52d1902d",
        "upgradeToAndCall(address,bytes)": "4f1ef286",
        "vote(uint256,uint256)": "b384abef",
        "voteUnlimit(uint256,uint256)": "24612fbf"
    },
    "id": 36
}